{
  "_format": "hh-sol-artifact-1",
  "contractName": "NFTBazzar",
  "sourceName": "contracts/NFTBazzar.sol",
  "abi": [
    {
      "inputs": [],
      "stateMutability": "nonpayable",
      "type": "constructor"
    },
    {
      "anonymous": false,
      "inputs": [
        {
          "indexed": true,
          "internalType": "address",
          "name": "owner",
          "type": "address"
        },
        {
          "indexed": true,
          "internalType": "address",
          "name": "approved",
          "type": "address"
        },
        {
          "indexed": true,
          "internalType": "uint256",
          "name": "tokenId",
          "type": "uint256"
        }
      ],
      "name": "Approval",
      "type": "event"
    },
    {
      "anonymous": false,
      "inputs": [
        {
          "indexed": true,
          "internalType": "address",
          "name": "owner",
          "type": "address"
        },
        {
          "indexed": true,
          "internalType": "address",
          "name": "operator",
          "type": "address"
        },
        {
          "indexed": false,
          "internalType": "bool",
          "name": "approved",
          "type": "bool"
        }
      ],
      "name": "ApprovalForAll",
      "type": "event"
    },
    {
      "anonymous": false,
      "inputs": [
        {
          "indexed": true,
          "internalType": "uint256",
          "name": "tokenId",
          "type": "uint256"
        },
        {
          "indexed": false,
          "internalType": "uint256",
          "name": "highestBid",
          "type": "uint256"
        },
        {
          "indexed": false,
          "internalType": "address",
          "name": "winner",
          "type": "address"
        }
      ],
      "name": "AuctionEnded",
      "type": "event"
    },
    {
      "anonymous": false,
      "inputs": [
        {
          "indexed": false,
          "internalType": "uint256",
          "name": "tokenId",
          "type": "uint256"
        }
      ],
      "name": "AuctionEndedWithNoBid",
      "type": "event"
    },
    {
      "anonymous": false,
      "inputs": [
        {
          "indexed": true,
          "internalType": "uint256",
          "name": "tokenId",
          "type": "uint256"
        },
        {
          "indexed": false,
          "internalType": "uint256",
          "name": "minBid",
          "type": "uint256"
        },
        {
          "indexed": false,
          "internalType": "uint256",
          "name": "duration",
          "type": "uint256"
        }
      ],
      "name": "AuctionStarted",
      "type": "event"
    },
    {
      "anonymous": false,
      "inputs": [
        {
          "indexed": false,
          "internalType": "uint256",
          "name": "tokenId",
          "type": "uint256"
        },
        {
          "indexed": true,
          "internalType": "address",
          "name": "recipient",
          "type": "address"
        }
      ],
      "name": "BuyItem",
      "type": "event"
    },
    {
      "anonymous": false,
      "inputs": [
        {
          "indexed": true,
          "internalType": "uint256",
          "name": "tokenId",
          "type": "uint256"
        },
        {
          "indexed": false,
          "internalType": "address",
          "name": "bidder",
          "type": "address"
        },
        {
          "indexed": false,
          "internalType": "uint256",
          "name": "bid",
          "type": "uint256"
        }
      ],
      "name": "NewBid",
      "type": "event"
    },
    {
      "anonymous": false,
      "inputs": [
        {
          "indexed": false,
          "internalType": "uint256",
          "name": "tokenId",
          "type": "uint256"
        },
        {
          "indexed": false,
          "internalType": "uint256",
          "name": "price",
          "type": "uint256"
        },
        {
          "indexed": false,
          "internalType": "bool",
          "name": "onAuction",
          "type": "bool"
        },
        {
          "indexed": false,
          "internalType": "uint256",
          "name": "auctionEndTime",
          "type": "uint256"
        },
        {
          "indexed": false,
          "internalType": "address",
          "name": "highestBidder",
          "type": "address"
        }
      ],
      "name": "ResellItem",
      "type": "event"
    },
    {
      "anonymous": false,
      "inputs": [
        {
          "indexed": true,
          "internalType": "uint256",
          "name": "tokenId",
          "type": "uint256"
        },
        {
          "indexed": false,
          "internalType": "string",
          "name": "tokenURI",
          "type": "string"
        },
        {
          "indexed": false,
          "internalType": "uint256",
          "name": "price",
          "type": "uint256"
        }
      ],
      "name": "TokenCreated",
      "type": "event"
    },
    {
      "anonymous": false,
      "inputs": [
        {
          "indexed": true,
          "internalType": "address",
          "name": "from",
          "type": "address"
        },
        {
          "indexed": true,
          "internalType": "address",
          "name": "to",
          "type": "address"
        },
        {
          "indexed": true,
          "internalType": "uint256",
          "name": "tokenId",
          "type": "uint256"
        }
      ],
      "name": "Transfer",
      "type": "event"
    },
    {
      "anonymous": false,
      "inputs": [
        {
          "indexed": false,
          "internalType": "uint256",
          "name": "_tokenId",
          "type": "uint256"
        },
        {
          "indexed": false,
          "internalType": "address payable",
          "name": "seller",
          "type": "address"
        },
        {
          "indexed": false,
          "internalType": "address payable",
          "name": "owner",
          "type": "address"
        },
        {
          "indexed": false,
          "internalType": "address payable",
          "name": "creator",
          "type": "address"
        },
        {
          "indexed": false,
          "internalType": "address payable",
          "name": "contractt",
          "type": "address"
        },
        {
          "indexed": false,
          "internalType": "uint256",
          "name": "price",
          "type": "uint256"
        },
        {
          "indexed": false,
          "internalType": "bool",
          "name": "sold",
          "type": "bool"
        },
        {
          "indexed": false,
          "internalType": "bool",
          "name": "onAuction",
          "type": "bool"
        },
        {
          "indexed": false,
          "internalType": "bool",
          "name": "onSale",
          "type": "bool"
        },
        {
          "indexed": false,
          "internalType": "uint256",
          "name": "auctionEndTime",
          "type": "uint256"
        },
        {
          "indexed": false,
          "internalType": "uint256",
          "name": "highestBid",
          "type": "uint256"
        },
        {
          "indexed": false,
          "internalType": "address payable",
          "name": "highestBidder",
          "type": "address"
        }
      ],
      "name": "idMarketItemCreated",
      "type": "event"
    },
    {
      "inputs": [
        {
          "internalType": "address",
          "name": "to",
          "type": "address"
        },
        {
          "internalType": "uint256",
          "name": "tokenId",
          "type": "uint256"
        }
      ],
      "name": "approve",
      "outputs": [],
      "stateMutability": "nonpayable",
      "type": "function"
    },
    {
      "inputs": [
        {
          "internalType": "address",
          "name": "owner",
          "type": "address"
        }
      ],
      "name": "balanceOf",
      "outputs": [
        {
          "internalType": "uint256",
          "name": "",
          "type": "uint256"
        }
      ],
      "stateMutability": "view",
      "type": "function"
    },
    {
      "inputs": [
        {
          "internalType": "uint256",
          "name": "tokenId",
          "type": "uint256"
        }
      ],
      "name": "bid",
      "outputs": [],
      "stateMutability": "payable",
      "type": "function"
    },
    {
      "inputs": [
        {
          "internalType": "uint256",
          "name": "tokenId",
          "type": "uint256"
        }
      ],
      "name": "buyItem",
      "outputs": [],
      "stateMutability": "payable",
      "type": "function"
    },
    {
      "inputs": [
        {
          "internalType": "string",
          "name": "tokenURI",
          "type": "string"
        },
        {
          "internalType": "uint256",
          "name": "price",
          "type": "uint256"
        },
        {
          "internalType": "bool",
          "name": "isAuction",
          "type": "bool"
        },
        {
          "internalType": "uint256",
          "name": "auctionDuration",
          "type": "uint256"
        }
      ],
      "name": "createToken",
      "outputs": [
        {
          "internalType": "uint256",
          "name": "",
          "type": "uint256"
        }
      ],
      "stateMutability": "payable",
      "type": "function"
    },
    {
      "inputs": [
        {
          "internalType": "uint256",
          "name": "tokenId",
          "type": "uint256"
        }
      ],
      "name": "endAuction",
      "outputs": [],
      "stateMutability": "payable",
      "type": "function"
    },
    {
      "inputs": [],
      "name": "fetchAllItems",
      "outputs": [
        {
          "components": [
            {
              "internalType": "uint256",
              "name": "_tokenId",
              "type": "uint256"
            },
            {
              "internalType": "address payable",
              "name": "seller",
              "type": "address"
            },
            {
              "internalType": "address payable",
              "name": "owner",
              "type": "address"
            },
            {
              "internalType": "address payable",
              "name": "creator",
              "type": "address"
            },
            {
              "internalType": "address payable",
              "name": "contractt",
              "type": "address"
            },
            {
              "internalType": "uint256",
              "name": "price",
              "type": "uint256"
            },
            {
              "internalType": "bool",
              "name": "sold",
              "type": "bool"
            },
            {
              "internalType": "bool",
              "name": "onAuction",
              "type": "bool"
            },
            {
              "internalType": "bool",
              "name": "onSale",
              "type": "bool"
            },
            {
              "internalType": "uint256",
              "name": "auctionEndTime",
              "type": "uint256"
            },
            {
              "internalType": "uint256",
              "name": "highestBid",
              "type": "uint256"
            },
            {
              "internalType": "address payable",
              "name": "highestBidder",
              "type": "address"
            }
          ],
          "internalType": "struct NFTBazzar.MarketItem[]",
          "name": "",
          "type": "tuple[]"
        }
      ],
      "stateMutability": "view",
      "type": "function"
    },
    {
      "inputs": [],
      "name": "fetchAuctionItem",
      "outputs": [
        {
          "components": [
            {
              "internalType": "uint256",
              "name": "_tokenId",
              "type": "uint256"
            },
            {
              "internalType": "address payable",
              "name": "seller",
              "type": "address"
            },
            {
              "internalType": "address payable",
              "name": "owner",
              "type": "address"
            },
            {
              "internalType": "address payable",
              "name": "creator",
              "type": "address"
            },
            {
              "internalType": "address payable",
              "name": "contractt",
              "type": "address"
            },
            {
              "internalType": "uint256",
              "name": "price",
              "type": "uint256"
            },
            {
              "internalType": "bool",
              "name": "sold",
              "type": "bool"
            },
            {
              "internalType": "bool",
              "name": "onAuction",
              "type": "bool"
            },
            {
              "internalType": "bool",
              "name": "onSale",
              "type": "bool"
            },
            {
              "internalType": "uint256",
              "name": "auctionEndTime",
              "type": "uint256"
            },
            {
              "internalType": "uint256",
              "name": "highestBid",
              "type": "uint256"
            },
            {
              "internalType": "address payable",
              "name": "highestBidder",
              "type": "address"
            }
          ],
          "internalType": "struct NFTBazzar.MarketItem[]",
          "name": "",
          "type": "tuple[]"
        }
      ],
      "stateMutability": "view",
      "type": "function"
    },
    {
      "inputs": [
        {
          "internalType": "address",
          "name": "userAdd",
          "type": "address"
        }
      ],
      "name": "fetchItemsListed",
      "outputs": [
        {
          "components": [
            {
              "internalType": "uint256",
              "name": "_tokenId",
              "type": "uint256"
            },
            {
              "internalType": "address payable",
              "name": "seller",
              "type": "address"
            },
            {
              "internalType": "address payable",
              "name": "owner",
              "type": "address"
            },
            {
              "internalType": "address payable",
              "name": "creator",
              "type": "address"
            },
            {
              "internalType": "address payable",
              "name": "contractt",
              "type": "address"
            },
            {
              "internalType": "uint256",
              "name": "price",
              "type": "uint256"
            },
            {
              "internalType": "bool",
              "name": "sold",
              "type": "bool"
            },
            {
              "internalType": "bool",
              "name": "onAuction",
              "type": "bool"
            },
            {
              "internalType": "bool",
              "name": "onSale",
              "type": "bool"
            },
            {
              "internalType": "uint256",
              "name": "auctionEndTime",
              "type": "uint256"
            },
            {
              "internalType": "uint256",
              "name": "highestBid",
              "type": "uint256"
            },
            {
              "internalType": "address payable",
              "name": "highestBidder",
              "type": "address"
            }
          ],
          "internalType": "struct NFTBazzar.MarketItem[]",
          "name": "",
          "type": "tuple[]"
        }
      ],
      "stateMutability": "view",
      "type": "function"
    },
    {
      "inputs": [],
      "name": "fetchMarketItem",
      "outputs": [
        {
          "components": [
            {
              "internalType": "uint256",
              "name": "_tokenId",
              "type": "uint256"
            },
            {
              "internalType": "address payable",
              "name": "seller",
              "type": "address"
            },
            {
              "internalType": "address payable",
              "name": "owner",
              "type": "address"
            },
            {
              "internalType": "address payable",
              "name": "creator",
              "type": "address"
            },
            {
              "internalType": "address payable",
              "name": "contractt",
              "type": "address"
            },
            {
              "internalType": "uint256",
              "name": "price",
              "type": "uint256"
            },
            {
              "internalType": "bool",
              "name": "sold",
              "type": "bool"
            },
            {
              "internalType": "bool",
              "name": "onAuction",
              "type": "bool"
            },
            {
              "internalType": "bool",
              "name": "onSale",
              "type": "bool"
            },
            {
              "internalType": "uint256",
              "name": "auctionEndTime",
              "type": "uint256"
            },
            {
              "internalType": "uint256",
              "name": "highestBid",
              "type": "uint256"
            },
            {
              "internalType": "address payable",
              "name": "highestBidder",
              "type": "address"
            }
          ],
          "internalType": "struct NFTBazzar.MarketItem[]",
          "name": "",
          "type": "tuple[]"
        }
      ],
      "stateMutability": "view",
      "type": "function"
    },
    {
      "inputs": [
        {
          "internalType": "uint256",
          "name": "tokenID",
          "type": "uint256"
        }
      ],
      "name": "fetchSingleItem",
      "outputs": [
        {
          "components": [
            {
              "internalType": "uint256",
              "name": "_tokenId",
              "type": "uint256"
            },
            {
              "internalType": "address payable",
              "name": "seller",
              "type": "address"
            },
            {
              "internalType": "address payable",
              "name": "owner",
              "type": "address"
            },
            {
              "internalType": "address payable",
              "name": "creator",
              "type": "address"
            },
            {
              "internalType": "address payable",
              "name": "contractt",
              "type": "address"
            },
            {
              "internalType": "uint256",
              "name": "price",
              "type": "uint256"
            },
            {
              "internalType": "bool",
              "name": "sold",
              "type": "bool"
            },
            {
              "internalType": "bool",
              "name": "onAuction",
              "type": "bool"
            },
            {
              "internalType": "bool",
              "name": "onSale",
              "type": "bool"
            },
            {
              "internalType": "uint256",
              "name": "auctionEndTime",
              "type": "uint256"
            },
            {
              "internalType": "uint256",
              "name": "highestBid",
              "type": "uint256"
            },
            {
              "internalType": "address payable",
              "name": "highestBidder",
              "type": "address"
            }
          ],
          "internalType": "struct NFTBazzar.MarketItem[]",
          "name": "",
          "type": "tuple[]"
        }
      ],
      "stateMutability": "view",
      "type": "function"
    },
    {
      "inputs": [
        {
          "internalType": "uint256",
          "name": "tokenId",
          "type": "uint256"
        }
      ],
      "name": "getApproved",
      "outputs": [
        {
          "internalType": "address",
          "name": "",
          "type": "address"
        }
      ],
      "stateMutability": "view",
      "type": "function"
    },
    {
      "inputs": [],
      "name": "getListingPrice",
      "outputs": [
        {
          "internalType": "uint256",
          "name": "",
          "type": "uint256"
        }
      ],
      "stateMutability": "view",
      "type": "function"
    },
    {
      "inputs": [
        {
          "internalType": "address",
          "name": "owner",
          "type": "address"
        },
        {
          "internalType": "address",
          "name": "operator",
          "type": "address"
        }
      ],
      "name": "isApprovedForAll",
      "outputs": [
        {
          "internalType": "bool",
          "name": "",
          "type": "bool"
        }
      ],
      "stateMutability": "view",
      "type": "function"
    },
    {
      "inputs": [],
      "name": "name",
      "outputs": [
        {
          "internalType": "string",
          "name": "",
          "type": "string"
        }
      ],
      "stateMutability": "view",
      "type": "function"
    },
    {
      "inputs": [
        {
          "internalType": "uint256",
          "name": "tokenId",
          "type": "uint256"
        }
      ],
      "name": "ownerOf",
      "outputs": [
        {
          "internalType": "address",
          "name": "",
          "type": "address"
        }
      ],
      "stateMutability": "view",
      "type": "function"
    },
    {
      "inputs": [
        {
          "internalType": "uint256",
          "name": "tokenId",
          "type": "uint256"
        },
        {
          "internalType": "uint256",
          "name": "price",
          "type": "uint256"
        },
        {
          "internalType": "bool",
          "name": "isAuction",
          "type": "bool"
        },
        {
          "internalType": "uint256",
          "name": "auctionDuration",
          "type": "uint256"
        }
      ],
      "name": "reSellItem",
      "outputs": [],
      "stateMutability": "payable",
      "type": "function"
    },
    {
      "inputs": [
        {
          "internalType": "address",
          "name": "from",
          "type": "address"
        },
        {
          "internalType": "address",
          "name": "to",
          "type": "address"
        },
        {
          "internalType": "uint256",
          "name": "tokenId",
          "type": "uint256"
        }
      ],
      "name": "safeTransferFrom",
      "outputs": [],
      "stateMutability": "nonpayable",
      "type": "function"
    },
    {
      "inputs": [
        {
          "internalType": "address",
          "name": "from",
          "type": "address"
        },
        {
          "internalType": "address",
          "name": "to",
          "type": "address"
        },
        {
          "internalType": "uint256",
          "name": "tokenId",
          "type": "uint256"
        },
        {
          "internalType": "bytes",
          "name": "data",
          "type": "bytes"
        }
      ],
      "name": "safeTransferFrom",
      "outputs": [],
      "stateMutability": "nonpayable",
      "type": "function"
    },
    {
      "inputs": [
        {
          "internalType": "address",
          "name": "operator",
          "type": "address"
        },
        {
          "internalType": "bool",
          "name": "approved",
          "type": "bool"
        }
      ],
      "name": "setApprovalForAll",
      "outputs": [],
      "stateMutability": "nonpayable",
      "type": "function"
    },
    {
      "inputs": [
        {
          "internalType": "bytes4",
          "name": "interfaceId",
          "type": "bytes4"
        }
      ],
      "name": "supportsInterface",
      "outputs": [
        {
          "internalType": "bool",
          "name": "",
          "type": "bool"
        }
      ],
      "stateMutability": "view",
      "type": "function"
    },
    {
      "inputs": [],
      "name": "symbol",
      "outputs": [
        {
          "internalType": "string",
          "name": "",
          "type": "string"
        }
      ],
      "stateMutability": "view",
      "type": "function"
    },
    {
      "inputs": [
        {
          "internalType": "uint256",
          "name": "tokenId",
          "type": "uint256"
        }
      ],
      "name": "tokenURI",
      "outputs": [
        {
          "internalType": "string",
          "name": "",
          "type": "string"
        }
      ],
      "stateMutability": "view",
      "type": "function"
    },
    {
      "inputs": [
        {
          "internalType": "address",
          "name": "from",
          "type": "address"
        },
        {
          "internalType": "address",
          "name": "to",
          "type": "address"
        },
        {
          "internalType": "uint256",
          "name": "tokenId",
          "type": "uint256"
        }
      ],
      "name": "transferFrom",
      "outputs": [],
      "stateMutability": "nonpayable",
      "type": "function"
    },
    {
      "inputs": [
        {
          "internalType": "uint256",
          "name": "_listingPrice",
          "type": "uint256"
        }
      ],
      "name": "updateListingPrice",
      "outputs": [],
      "stateMutability": "payable",
      "type": "function"
    }
  ],
  "bytecode": "0x60806040526608e1bc9bf04000600a553480156200001c57600080fd5b506040518060400160405280600981526020016827232a2130bd3d30b960b91b81525060405180604001604052806005815260200164135653919560da1b81525081600090816200006e919062000144565b5060016200007d828262000144565b5050600160075550600b80546001600160a01b0319163317905562000210565b634e487b7160e01b600052604160045260246000fd5b600181811c90821680620000c857607f821691505b602082108103620000e957634e487b7160e01b600052602260045260246000fd5b50919050565b601f8211156200013f576000816000526020600020601f850160051c810160208610156200011a5750805b601f850160051c820191505b818110156200013b5782815560010162000126565b5050505b505050565b81516001600160401b038111156200016057620001606200009d565b6200017881620001718454620000b3565b84620000ef565b602080601f831160018114620001b05760008415620001975750858301515b600019600386901b1c1916600185901b1785556200013b565b600085815260208120601f198616915b82811015620001e157888601518255948401946001909101908401620001c0565b5085821015620002005787850151600019600388901b60f8161c191681555b5050505050600190811b01905550565b61314980620002206000396000f3fe6080604052600436106101665760003560e01c80638a410b1a116100d1578063ae677aa31161008a578063c87b56dd11610064578063c87b56dd146103e6578063dec2faa514610406578063e7fb74c71461041b578063e985e9c51461042e57600080fd5b8063ae677aa3146103a0578063b88d4fde146103b3578063b9a2de3a146103d357600080fd5b80638a410b1a146102f45780638fafd0211461032157806395d89b411461033657806397598cc31461034b578063a22cb46514610360578063a2bf932a1461038057600080fd5b806341fd77af1161012357806341fd77af1461025b57806342842e0e1461026e578063454a2ab31461028e578063615d1f03146102a15780636352211e146102b457806370a08231146102d457600080fd5b806301ffc9a71461016b57806306fdde03146101a0578063081812fc146101c2578063095ea7b3146101fa57806312e855851461021c57806323b872dd1461023b575b600080fd5b34801561017757600080fd5b5061018b61018636600461296b565b61044e565b60405190151581526020015b60405180910390f35b3480156101ac57600080fd5b506101b56104a0565b60405161019791906129d8565b3480156101ce57600080fd5b506101e26101dd3660046129eb565b610532565b6040516001600160a01b039091168152602001610197565b34801561020657600080fd5b5061021a610215366004612a20565b610559565b005b34801561022857600080fd5b50600a545b604051908152602001610197565b34801561024757600080fd5b5061021a610256366004612a4a565b610673565b61021a610269366004612a96565b6106a4565b34801561027a57600080fd5b5061021a610289366004612a4a565b6108e9565b61021a61029c3660046129eb565b610904565b61022d6102af366004612b5f565b610b40565b3480156102c057600080fd5b506101e26102cf3660046129eb565b610bdb565b3480156102e057600080fd5b5061022d6102ef366004612bc2565b610c3b565b34801561030057600080fd5b5061031461030f366004612bc2565b610cc1565b6040516101979190612bdd565b34801561032d57600080fd5b50610314610eac565b34801561034257600080fd5b506101b56110e9565b34801561035757600080fd5b506103146110f8565b34801561036c57600080fd5b5061021a61037b366004612cae565b6112ae565b34801561038c57600080fd5b5061031461039b3660046129eb565b6112bd565b61021a6103ae3660046129eb565b611431565b3480156103bf57600080fd5b5061021a6103ce366004612ce1565b6114b6565b61021a6103e13660046129eb565b6114ee565b3480156103f257600080fd5b506101b56104013660046129eb565b6117a1565b34801561041257600080fd5b506103146118a9565b61021a6104293660046129eb565b611b21565b34801561043a57600080fd5b5061018b610449366004612d5d565b611d7a565b60006001600160e01b031982166380ac58cd60e01b148061047f57506001600160e01b03198216635b5e139f60e01b145b8061049a57506301ffc9a760e01b6001600160e01b03198316145b92915050565b6060600080546104af90612d87565b80601f01602080910402602001604051908101604052809291908181526020018280546104db90612d87565b80156105285780601f106104fd57610100808354040283529160200191610528565b820191906000526020600020905b81548152906001019060200180831161050b57829003601f168201915b5050505050905090565b600061053d82611da8565b506000908152600460205260409020546001600160a01b031690565b600061056482610bdb565b9050806001600160a01b0316836001600160a01b0316036105d65760405162461bcd60e51b815260206004820152602160248201527f4552433732313a20617070726f76616c20746f2063757272656e74206f776e656044820152603960f91b60648201526084015b60405180910390fd5b336001600160a01b03821614806105f257506105f28133611d7a565b6106645760405162461bcd60e51b815260206004820152603e60248201527f4552433732313a20617070726f76652063616c6c6572206973206e6f7420746f60448201527f6b656e206f776e6572206e6f7220617070726f76656420666f7220616c6c000060648201526084016105cd565b61066e8383611e0a565b505050565b61067d3382611e78565b6106995760405162461bcd60e51b81526004016105cd90612dc1565b61066e838383611ed6565b6000848152600c60205260409020600201546001600160a01b0316331461070d5760405162461bcd60e51b815260206004820152601f60248201527f4f6e6c79204e4654204f776e65722063616e2073656c6c20746865204e46540060448201526064016105cd565b600a543410156107855760405162461bcd60e51b815260206004820152603860248201527f5072696365204d7573742062652067726561746572207468616e206f7220657160448201527f75616c20746f20746865206c697374696e67207072696365000000000000000060648201526084016105cd565b6000848152600c6020526040902060028101546001820180546001600160a01b0319166001600160a01b03909216919091179055600601805460ff191690558115610835576000848152600c6020526040902060068101805461ff0019166101001790556005018390556107fa81603c612e25565b6108049042612e3c565b6000858152600c602052604081206007810192909255600882015560090180546001600160a01b031916905561085d565b6000848152600c6020526040902060068101805462ff00001916620100001790556005018390555b6108676009612072565b610872333086611ed6565b6000848152600c6020908152604091829020600781015460099091015483518881529283018790528515158385015260608301919091526001600160a01b0316608082015290517f90ab29758c9190390f4c8717c60a805a2d73fc719ee2051bb517632b9525df2c9181900360a00190a150505050565b61066e838383604051806020016040528060008152506114b6565b6002600754036109265760405162461bcd60e51b81526004016105cd90612e4f565b60026007556000818152600c602052604090206006810154610100900460ff1661098a5760405162461bcd60e51b815260206004820152601560248201527441756374696f6e206973206e6f742061637469766560581b60448201526064016105cd565b806007015442106109d15760405162461bcd60e51b8152602060048201526011602482015270105d58dd1a5bdb881a185cc8195b991959607a1b60448201526064016105cd565b80600501543411610a345760405162461bcd60e51b815260206004820152602760248201527f426964206d75737420626520686967686572207468616e20746865206d696e696044820152661b5d5b48189a5960ca1b60648201526084016105cd565b80600801543411610a875760405162461bcd60e51b815260206004820152601d60248201527f546865726520697320616c72656164792061206869676865722062696400000060448201526064016105cd565b60098101546001600160a01b031615610adc57600981015460088201546040516001600160a01b039092169181156108fc0291906000818181858888f19350505050158015610ada573d6000803e3d6000fd5b505b34600882018190556009820180546001600160a01b0319163390811790915560408051918252602082019290925283917f558a0d5d5468d74b0db24c74eb348b42271c2ebb4c9e953ced38aaed95fa4361910160405180910390a250506001600755565b6000610b50600880546001019055565b6000610b5b60085490565b9050610b6733826120c9565b610b71818761220b565b8315610b8957610b84818660018661229e565b610b96565b610b96818660008061229e565b807fb2c56fa1c8d4635aea10eb6fe9c5f3e23f4c1674621f027e40f978bbfe8def338787604051610bc8929190612e86565b60405180910390a290505b949350505050565b6000818152600260205260408120546001600160a01b03168061049a5760405162461bcd60e51b8152602060048201526018602482015277115490cdcc8c4e881a5b9d985b1a59081d1bdad95b88125160421b60448201526064016105cd565b60006001600160a01b038216610ca55760405162461bcd60e51b815260206004820152602960248201527f4552433732313a2061646472657373207a65726f206973206e6f7420612076616044820152683634b21037bbb732b960b91b60648201526084016105cd565b506001600160a01b031660009081526003602052604090205490565b60606000610cce60085490565b905060008060015b838111610d21576000818152600c60205260409020600201546001600160a01b03808816911603610d0f57610d0c600184612e3c565b92505b80610d1981612ea8565b915050610cd6565b5060008267ffffffffffffffff811115610d3d57610d3d612ad3565b604051908082528060200260200182016040528015610d7657816020015b610d636128f1565b815260200190600190039081610d5b5790505b50905060015b848111610ea2576000818152600c60205260409020600201546001600160a01b03808916911603610e90576000818152600c60209081526040918290208251610180810184528154815260018201546001600160a01b03908116938201939093526002820154831693810193909352600381015482166060840152600481015482166080840152600581015460a0840152600681015460ff808216151560c08601526101008083048216151560e087015262010000909204161515908401526007810154610120840152600881015461014084015260098101549091166101608301528351909190849086908110610e7657610e76612ec1565b6020908102919091010152610e8c600185612e3c565b9350505b80610e9a81612ea8565b915050610d7c565b5095945050505050565b60606000610eb960085490565b90506000805b82811015610f0e57600c6000610ed6836001612e3c565b815260208101919091526040016000206006015462010000900460ff1615610f0657610f03600183612e3c565b91505b600101610ebf565b5060008167ffffffffffffffff811115610f2a57610f2a612ad3565b604051908082528060200260200182016040528015610f6357816020015b610f506128f1565b815260200190600190039081610f485790505b5090506000805b8481101561109f57600c6000610f81836001612e3c565b815260208101919091526040016000206006015462010000900460ff161561109757600c6000610fb2836001612e3c565b815260208082019290925260409081016000208151610180810183528154815260018201546001600160a01b03908116948201949094526002820154841692810192909252600381015483166060830152600481015483166080830152600581015460a0830152600681015460ff808216151560c08501526101008083048216151560e086015262010000909204161515908301526007810154610120830152600881015461014083015260090154909116610160820152835184908490811061107e5761107e612ec1565b6020908102919091010152611094600183612e3c565b91505b600101610f6a565b50600081116110e15760405162461bcd60e51b815260206004820152600e60248201526d139bc81a5d195b5cc8199bdd5b9960921b60448201526064016105cd565b509392505050565b6060600180546104af90612d87565b6060600061110560085490565b90506000808267ffffffffffffffff81111561112357611123612ad3565b60405190808252806020026020018201604052801561115c57816020015b6111496128f1565b8152602001906001900390816111415790505b50905060005b8381101561126557600c6000611179836001612e3c565b815260208082019290925260409081016000208151610180810183528154815260018201546001600160a01b03908116948201949094526002820154841692810192909252600381015483166060830152600481015483166080830152600581015460a0830152600681015460ff808216151560c08501526101008083048216151560e086015262010000909204161515908301526007810154610120830152600881015461014083015260090154909116610160820152825183908590811061124557611245612ec1565b602090810291909101015261125b600184612e3c565b9250600101611162565b50600082116112a75760405162461bcd60e51b815260206004820152600e60248201526d139bc81a5d195b5cc8199bdd5b9960921b60448201526064016105cd565b9392505050565b6112b933838361257e565b5050565b606060006112ca60085490565b60408051600180825281830190925291925060009190816020015b6112ed6128f1565b8152602001906001900390816112e55790505090506000805b8381101561109f5785600c600061131e846001612e3c565b8152602001908152602001600020600001540361142957600c6000611344836001612e3c565b815260208082019290925260409081016000208151610180810183528154815260018201546001600160a01b03908116948201949094526002820154841692810192909252600381015483166060830152600481015483166080830152600581015460a0830152600681015460ff808216151560c08501526101008083048216151560e086015262010000909204161515908301526007810154610120830152600881015461014083015260090154909116610160820152835184908490811061141057611410612ec1565b6020908102919091010152611426600183612e3c565b91505b600101611306565b600b546001600160a01b031633146114b15760405162461bcd60e51b815260206004820152603a60248201527f6f6e6c79206f776e6572206f6620746865206d61726b6574706c61636520636160448201527f6e206368616e676520746865206c697374696e6720707269636500000000000060648201526084016105cd565b600a55565b6114c03383611e78565b6114dc5760405162461bcd60e51b81526004016105cd90612dc1565b6114e88484848461264c565b50505050565b6002600754036115105760405162461bcd60e51b81526004016105cd90612e4f565b60026007556000818152600c602052604090206006810154610100900460ff166115745760405162461bcd60e51b815260206004820152601560248201527441756374696f6e206973206e6f742061637469766560581b60448201526064016105cd565b80600701544210156115c85760405162461bcd60e51b815260206004820152601860248201527f41756374696f6e206973207374696c6c206f6e676f696e67000000000000000060448201526064016105cd565b60068101805461ff001916905560098101546001600160a01b03161561177e5760006115f3600a5490565b600b546040519192506001600160a01b03169082156108fc029083906000818181858888f1935050505015801561162e573d6000803e3d6000fd5b506008820154806116795760405162461bcd60e51b815260206004820152601560248201527453656c6c657220616d6f756e74206973207a65726f60581b60448201526064016105cd565b60018301546040516001600160a01b039091169082156108fc029083906000818181858888f193505050501580156116b5573d6000803e3d6000fd5b50600283018054600180860180546001600160a01b038085166001600160a01b0319928316179092556009808901549092169316929092179092556008850154600586015560068501805460ff1916831790558054909101905560098301546117299030906001600160a01b031686611ed6565b60088301546009840154604080519283526001600160a01b03909116602083015285917fbafc4bda865d4d1f8d5b16f883e996fde0fe71112fac81503876d35375694400910160405180910390a25050611798565b60018101546117989030906001600160a01b031684611ed6565b50506001600755565b60606117ac82611da8565b600082815260066020526040812080546117c590612d87565b80601f01602080910402602001604051908101604052809291908181526020018280546117f190612d87565b801561183e5780601f106118135761010080835404028352916020019161183e565b820191906000526020600020905b81548152906001019060200180831161182157829003601f168201915b50505050509050600061185c60408051602081019091526000815290565b9050805160000361186e575092915050565b8151156118a0578082604051602001611888929190612ed7565b60405160208183030381529060405292505050919050565b610bd38461267f565b606060006118b660085490565b90506000805b8281101561190a57600c60006118d3836001612e3c565b8152602081019190915260400160002060060154610100900460ff1615611902576118ff600183612e3c565b91505b6001016118bc565b506000811161194e5760405162461bcd60e51b815260206004820152601060248201526f4e6f2061756374696f6e206974656d7360801b60448201526064016105cd565b60008167ffffffffffffffff81111561196957611969612ad3565b6040519080825280602002602001820160405280156119a257816020015b61198f6128f1565b8152602001906001900390816119875790505b5090506000805b84811015611add57600c60006119c0836001612e3c565b8152602081019190915260400160002060060154610100900460ff1615611ad557600c60006119f0836001612e3c565b815260208082019290925260409081016000208151610180810183528154815260018201546001600160a01b03908116948201949094526002820154841692810192909252600381015483166060830152600481015483166080830152600581015460a0830152600681015460ff808216151560c08501526101008083048216151560e0860152620100009092041615159083015260078101546101208301526008810154610140830152600901549091166101608201528351849084908110611abc57611abc612ec1565b6020908102919091010152611ad2600183612e3c565b91505b6001016119a9565b50600081116110e15760405162461bcd60e51b815260206004820152601060248201526f4e6f2061756374696f6e206974656d7360801b60448201526064016105cd565b600260075403611b435760405162461bcd60e51b81526004016105cd90612e4f565b60026007556000818152600c6020526040902060050154348114611bcf5760405162461bcd60e51b815260206004820152603760248201527f506c65617365207375626d6974207468652061736b696e67207072696365207460448201527f6f20636f6d706c6574652074686520707572636861736500000000000000000060648201526084016105cd565b6000611bda600a5490565b90506000611be88234612f06565b905060008111611c325760405162461bcd60e51b815260206004820152601560248201527453656c6c657220616d6f756e74206973207a65726f60581b60448201526064016105cd565b600b546040516001600160a01b039091169083156108fc029084906000818181858888f19350505050158015611c6c573d6000803e3d6000fd5b506000848152600c60205260408082206001015490516001600160a01b039091169183156108fc02918491818181858888f19350505050158015611cb4573d6000803e3d6000fd5b506000848152600c60205260409020600281018054600180840180546001600160a01b03199081166001600160a01b0385161790915590911633179091556006909101805462ff00ff19169091179055611d12600980546001019055565b611d1d303386611ed6565b6000848152600c60209081526040918290206002015491518681526001600160a01b03909216917f3b389fd404da5e441ca41a7645775a68f254e9153177fa10d255a7315391aa52910160405180910390a2505060016007555050565b6001600160a01b03918216600090815260056020908152604080832093909416825291909152205460ff1690565b6000818152600260205260409020546001600160a01b0316611e075760405162461bcd60e51b8152602060048201526018602482015277115490cdcc8c4e881a5b9d985b1a59081d1bdad95b88125160421b60448201526064016105cd565b50565b600081815260046020526040902080546001600160a01b0319166001600160a01b0384169081179091558190611e3f82610bdb565b6001600160a01b03167f8c5be1e5ebec7d5bd14f71427d1e84f3dd0314c0f7b2291e5b200ac8c7c3b92560405160405180910390a45050565b600080611e8483610bdb565b9050806001600160a01b0316846001600160a01b03161480611eab5750611eab8185611d7a565b80610bd35750836001600160a01b0316611ec484610532565b6001600160a01b031614949350505050565b826001600160a01b0316611ee982610bdb565b6001600160a01b031614611f4d5760405162461bcd60e51b815260206004820152602560248201527f4552433732313a207472616e736665722066726f6d20696e636f72726563742060448201526437bbb732b960d91b60648201526084016105cd565b6001600160a01b038216611faf5760405162461bcd60e51b8152602060048201526024808201527f4552433732313a207472616e7366657220746f20746865207a65726f206164646044820152637265737360e01b60648201526084016105cd565b611fba600082611e0a565b6001600160a01b0383166000908152600360205260408120805460019290611fe3908490612f06565b90915550506001600160a01b0382166000908152600360205260408120805460019290612011908490612e3c565b909155505060008181526002602052604080822080546001600160a01b0319166001600160a01b0386811691821790925591518493918716917fddf252ad1be2c89b69c2b068fc378daa952ba7f163c4a11628f55a4df523b3ef91a4505050565b8054806120c15760405162461bcd60e51b815260206004820152601b60248201527f436f756e7465723a2064656372656d656e74206f766572666c6f77000000000060448201526064016105cd565b600019019055565b6001600160a01b03821661211f5760405162461bcd60e51b815260206004820181905260248201527f4552433732313a206d696e7420746f20746865207a65726f206164647265737360448201526064016105cd565b6000818152600260205260409020546001600160a01b0316156121845760405162461bcd60e51b815260206004820152601c60248201527f4552433732313a20746f6b656e20616c7265616479206d696e7465640000000060448201526064016105cd565b6001600160a01b03821660009081526003602052604081208054600192906121ad908490612e3c565b909155505060008181526002602052604080822080546001600160a01b0319166001600160a01b03861690811790915590518392907fddf252ad1be2c89b69c2b068fc378daa952ba7f163c4a11628f55a4df523b3ef908290a45050565b6000828152600260205260409020546001600160a01b03166122865760405162461bcd60e51b815260206004820152602e60248201527f45524337323155524953746f726167653a2055524920736574206f66206e6f6e60448201526d32bc34b9ba32b73a103a37b5b2b760911b60648201526084016105cd565b600082815260066020526040902061066e8282612f69565b600083116122ee5760405162461bcd60e51b815260206004820152601c60248201527f5072696365206d7573742062652067726561746572207468616e20300000000060448201526064016105cd565b600a5434146123505760405162461bcd60e51b815260206004820152602860248201527f5072696365206d75737420626520657175616c20746f20746865206c697374696044820152676e6720707269636560c01b60648201526084016105cd565b60408051610180810182528581523360208201819052918101829052606081019190915230608082015260a08101849052600060c08201528215801560e083015261010082015261012081016123a783603c612e25565b6123b19042612e3c565b8152600060208083018290526040928301829052878252600c815282822084518155908401516001820180546001600160a01b03199081166001600160a01b0393841617909155938501516002830180548616918316919091179055606085015160038301805486169183169190911790556080850151600483018054861691831691909117905560a0850151600583015560c085015160068301805460e0880151610100808a015161ffff1990931694151561ff001916949094179015159093029290921762ff00001916620100009215159290920291909117905561012085015160078301556101408501516008830155610160909401516009909101805490931693169290921790557e9305f6d37a1bdc0fa8c76628a9699523a182f695150fd948c7840626d1926d908590339081908190309089908980156124f88b603c612e25565b6125029042612e3c565b604080519a8b526001600160a01b03998a1660208c0152978916978a0197909752948716606089015295909216608087015260a0860152151560c085015291151560e0840152901515610100830152610120820152600061014082018190526101608201526101800160405180910390a16114e8333086611ed6565b816001600160a01b0316836001600160a01b0316036125df5760405162461bcd60e51b815260206004820152601960248201527f4552433732313a20617070726f766520746f2063616c6c65720000000000000060448201526064016105cd565b6001600160a01b03838116600081815260056020908152604080832094871680845294825291829020805460ff191686151590811790915591519182527f17307eab39ab6107e8899845ad3d59bd9653f200f220920489ca2b5937696c31910160405180910390a3505050565b612657848484611ed6565b612663848484846126f2565b6114e85760405162461bcd60e51b81526004016105cd90613029565b606061268a82611da8565b60006126a160408051602081019091526000815290565b905060008151116126c157604051806020016040528060008152506112a7565b806126cb846127f0565b6040516020016126dc929190612ed7565b6040516020818303038152906040529392505050565b60006001600160a01b0384163b156127e857604051630a85bd0160e11b81526001600160a01b0385169063150b7a029061273690339089908890889060040161307b565b6020604051808303816000875af1925050508015612771575060408051601f3d908101601f1916820190925261276e918101906130b8565b60015b6127ce573d80801561279f576040519150601f19603f3d011682016040523d82523d6000602084013e6127a4565b606091505b5080516000036127c65760405162461bcd60e51b81526004016105cd90613029565b805181602001fd5b6001600160e01b031916630a85bd0160e11b149050610bd3565b506001610bd3565b6060816000036128175750506040805180820190915260018152600360fc1b602082015290565b8160005b8115612841578061282b81612ea8565b915061283a9050600a836130eb565b915061281b565b60008167ffffffffffffffff81111561285c5761285c612ad3565b6040519080825280601f01601f191660200182016040528015612886576020820181803683370190505b5090505b8415610bd35761289b600183612f06565b91506128a8600a866130ff565b6128b3906030612e3c565b60f81b8183815181106128c8576128c8612ec1565b60200101906001600160f81b031916908160001a9053506128ea600a866130eb565b945061288a565b6040805161018081018252600080825260208201819052918101829052606081018290526080810182905260a0810182905260c0810182905260e0810182905261010081018290526101208101829052610140810182905261016081019190915290565b6001600160e01b031981168114611e0757600080fd5b60006020828403121561297d57600080fd5b81356112a781612955565b60005b838110156129a357818101518382015260200161298b565b50506000910152565b600081518084526129c4816020860160208601612988565b601f01601f19169290920160200192915050565b6020815260006112a760208301846129ac565b6000602082840312156129fd57600080fd5b5035919050565b80356001600160a01b0381168114612a1b57600080fd5b919050565b60008060408385031215612a3357600080fd5b612a3c83612a04565b946020939093013593505050565b600080600060608486031215612a5f57600080fd5b612a6884612a04565b9250612a7660208501612a04565b9150604084013590509250925092565b80358015158114612a1b57600080fd5b60008060008060808587031215612aac57600080fd5b8435935060208501359250612ac360408601612a86565b9396929550929360600135925050565b634e487b7160e01b600052604160045260246000fd5b600067ffffffffffffffff80841115612b0457612b04612ad3565b604051601f8501601f19908116603f01168101908282118183101715612b2c57612b2c612ad3565b81604052809350858152868686011115612b4557600080fd5b858560208301376000602087830101525050509392505050565b60008060008060808587031215612b7557600080fd5b843567ffffffffffffffff811115612b8c57600080fd5b8501601f81018713612b9d57600080fd5b612bac87823560208401612ae9565b94505060208501359250612ac360408601612a86565b600060208284031215612bd457600080fd5b6112a782612a04565b602080825282518282018190526000919060409081850190868401855b82811015612ca157815180518552868101516001600160a01b03908116888701528682015181168787015260608083015182169087015260808083015182169087015260a0808301519087015260c08083015115159087015260e08083015115159087015261010080830151151590870152610120808301519087015261014080830151908701526101609182015116908501526101809093019290850190600101612bfa565b5091979650505050505050565b60008060408385031215612cc157600080fd5b612cca83612a04565b9150612cd860208401612a86565b90509250929050565b60008060008060808587031215612cf757600080fd5b612d0085612a04565b9350612d0e60208601612a04565b925060408501359150606085013567ffffffffffffffff811115612d3157600080fd5b8501601f81018713612d4257600080fd5b612d5187823560208401612ae9565b91505092959194509250565b60008060408385031215612d7057600080fd5b612d7983612a04565b9150612cd860208401612a04565b600181811c90821680612d9b57607f821691505b602082108103612dbb57634e487b7160e01b600052602260045260246000fd5b50919050565b6020808252602e908201527f4552433732313a2063616c6c6572206973206e6f7420746f6b656e206f776e6560408201526d1c881b9bdc88185c1c1c9bdd995960921b606082015260800190565b634e487b7160e01b600052601160045260246000fd5b808202811582820484141761049a5761049a612e0f565b8082018082111561049a5761049a612e0f565b6020808252601f908201527f5265656e7472616e637947756172643a207265656e7472616e742063616c6c00604082015260600190565b604081526000612e9960408301856129ac565b90508260208301529392505050565b600060018201612eba57612eba612e0f565b5060010190565b634e487b7160e01b600052603260045260246000fd5b60008351612ee9818460208801612988565b835190830190612efd818360208801612988565b01949350505050565b8181038181111561049a5761049a612e0f565b601f82111561066e576000816000526020600020601f850160051c81016020861015612f425750805b601f850160051c820191505b81811015612f6157828155600101612f4e565b505050505050565b815167ffffffffffffffff811115612f8357612f83612ad3565b612f9781612f918454612d87565b84612f19565b602080601f831160018114612fcc5760008415612fb45750858301515b600019600386901b1c1916600185901b178555612f61565b600085815260208120601f198616915b82811015612ffb57888601518255948401946001909101908401612fdc565b50858210156130195787850151600019600388901b60f8161c191681555b5050505050600190811b01905550565b60208082526032908201527f4552433732313a207472616e7366657220746f206e6f6e20455243373231526560408201527131b2b4bb32b91034b6b83632b6b2b73a32b960711b606082015260800190565b6001600160a01b03858116825284166020820152604081018390526080606082018190526000906130ae908301846129ac565b9695505050505050565b6000602082840312156130ca57600080fd5b81516112a781612955565b634e487b7160e01b600052601260045260246000fd5b6000826130fa576130fa6130d5565b500490565b60008261310e5761310e6130d5565b50069056fea264697066735822122094f1e37abfae61f269281d70af7e79714971bea222d4d6a51db2263f5d13aa7264736f6c63430008180033",
  "linkReferences": {},
  "deployedLinkReferences": {}
}